:020000020000FC
:100000000C940200279A269A259A249A6B9A9D9A14
:100010006D9A6C984427649BFECF03C06499FECF11
:10002000FACF442381F42F9B1EC02E9B20C02D9B12
:1000300022C02C9B24C0739B26C0A59B28C0759B07
:100040002AC041E0EBCF759928C0A59922C07399C9
:100050001CC02C9916C02D9910C02E990AC02F993A
:1000600004C040E0DBCF2F9AD9CF2F98FACF2E9A39
:10007000D5CF2E98D3CF2D9AD1CF2D98CFCF2C9AE4
:10008000CDCF2C98CBCF739AC9CF7398C7CFA59AF1
:10009000C5CFA598C3CF759AD4CF7598BFCFFFCFE2
:00000001FF
